:100000000EC026C025C024C023C0C8C021C020C047
:100010001FC01EC01DC01CC01BC01AC019C01124A7
:100020001FBECFEDCDBF10E0A0E6B0E0E2E9F5E005
:1000300002C005900D92AA37B107D9F720E0AAE7D0
:10004000B0E001C01D92A038B207E1F78CD29FC288
:10005000D7CF982F82FF02C0986001C0977F83FF9F
:1000600002C0906101C09F7E84FF03C0892F84601D
:100070000895892F8B7F0895ECDF9FE189270895EC
:100080008FED87BB80E2F8DF88BB089583B783607C
:1000900083BF89B7826089BF7894089586B38295BB
:1000A0008695877091E08927817090E00895009788
:1000B00041F0E9EFF0E03197F1F700C0000001975F
:1000C000F6CF0895CF92DF92EF92FF921F93CF93D6
:1000D000DF93182FD1DF806288BBE12CF12C5AE02E
:1000E000C52ED12CC2E3D0E0CE01E1DF103111F0FA
:1000F000110F01C011E0812FBFDF806288BBCA3FB2
:10010000D1055CF0C03981E0D80724F44EE1C42E5B
:10011000D12C03C032E3C32ED12CEF2871F1C53F9F
:1001200081E0D80724F1CE01880F991FC0DF812F0D
:1001300090DF182FC6E0D0E098B3912798BB8AEFE4
:1001400090E0B5DF2197C1F780E296DF88BB809110
:100150007E0090917F00892BC9F08EEE92E0DF91B6
:10016000CF911F91FF90EF90DF90CF90A0CFCC0D5B
:10017000DD1DEE24E394F12CB7CF90DF31E020E0D9
:10018000892B09F030E0E32EF22EAECFDF91CF9134
:100190001F91FF90EF90DF90CF9008951F920F92E4
:1001A0000FB60F9211242F933F934F935F936F934A
:1001B0007F938F939F93AF93BF93EF93FF936EDFE4
:1001C000892BC1F180917A0090917B00892B91F568
:1001D00080917C0090917D00019690937D008093AA
:1001E0007C0080917C0090917D0003973CF181E040
:1001F00090E090937B0080937A008091600062DFB2
:1002000010927D0010927C0010927B0010927A0078
:1002100080916000880F880F80936000809160005B
:10022000803260F08091600082958695877080931F
:10023000600004C010927D0010927C00FF91EF914D
:10024000BF91AF919F918F917F916F915F914F91EE
:100250003F912F910F900FBE0F901F901895DF9236
:10026000EF92FF920F931F93CF93DF937C0180E275
:1002700003DF88BB02E010E0DD24D394C0E0D0E0CF
:100280008D2D0C2E01C0880F0A94EAF7E2DE98B398
:10029000892788BBC7010BDF2196C530D10581F7BF
:1002A0000130110519F001E010E0E8CFDF91CF91A6
:1002B0001F910F91FF90EF90DF900895BF92CF9222
:1002C000DF92EF92FF920F931F93CF93DF93CDB7FF
:1002D000DD27CA50CDBF7C0180E2CEDE88BB8AE03C
:1002E000E1E6F0E0DE01119601900D928A95E1F7CA
:1002F000C701DDDE8E010F5F1F4F6E018BE0C80E60
:10030000D11CBB24B394F80180810E5F1F4FFB2DDD
:1003100001C0FF0F8A95EAF78F2F9BDE98B38927DC
:1003200088BBC701C4DE0C151D0569F7C65FCDBFCC
:10033000DF91CF911F910F91FF90EF90DF90CF90C1
:10034000BF900895AF92BF92CF92DF92EF92FF924B
:100350000F931F93CF93DF93CDB7DD27CA50CDBF47
:100360006C018FE389DE88BB9AE0EBE6F0E0DE010A
:10037000119601900D929A95E1F78E010F5F1F4F34
:100380007E012BE0E20EF11CAA24A394B12CF8010B
:1003900080810E5F1F4F950102C0220F331F8A9587
:1003A000E2F7C901806255DE98B3892B88BBC6018C
:1003B0007EDE0E151F0559F7C65FCDBFDF91CF91C9
:1003C0001F910F91FF90EF90DF90CF90BF90AF9073
:1003D0000895CF93DF93EC018FE34EDE88BBCE010F
:1003E00066DE80E249DE88BBCE01DF91CF915FCE31
:1003F000CF92DF92EF92FF920F931F93CF93DF93F1
:10040000CDB7DD27C450CDBF8C01198284E08A832B
:100410008EE08B838FE18C83CE0101967C016E018F
:1004200095E0C90ED11CF70181917F01806224DE25
:1004300088BBC8013CDEEC14FD04A9F78B81806207
:100440001BDE88BBC80133DE8A81806215DE88BB73
:10045000C8012DDE80E210DE88BBCC5FCDBFDF910E
:10046000CF911F910F91FF90EF90DF90CF90089563
:10047000CF92DF92EF92FF920F931F93CF93DF9370
:10048000CDB7DD27C550CDBF6C0195E0E5E7F0E0C5
:10049000DE01119601900D929A95E1F78E010F5FA2
:1004A0001F4F7E0185E0E80EF11CF80181918F015C
:1004B0008062E2DD88BBC601FADD0E151F05A9F7D3
:1004C000CB5FCDBFDF91CF911F910F91FF90EF9048
:1004D000DF90CF90089584EF91E0C1DE88EE93E045
:1004E000EDDE88EE93E02EDF84EF91E0C1DF84EF54
:1004F00091E06FDF84EF91E06CDF84EF91E078DFD3
:1005000084EF91E075DF8AEF90E0A9DE84EF91E05F
:10051000D5DE84EF91E016DF8AEF90E0A9DF8AEF65
:1005200090E057DF8AEF90E054DF8AEF90E060DFE1
:100530008AEF90E05DDF8DE790E091DE8AEF90E05A
:10054000BDDE8AEF90E0FEDE8DE790E091DF8DE783
:1005500090E03FDF8DE790E03CDF8DE790E048DF03
:100560008DE790E045CF8CDD91DD98DD892B31F072
:1005700081E090E090937F0080937E0080917E00E8
:1005800090917F00892B11F0A6DFFECFFFCFF8946A
:02059000FFCF9B
:100592000103000100040002000000020001000447
:0A05A2000000000300160B151A0DEF
:00000001FF
