:100000000EC026C025C024C023C0AAC021C020C065
:100010001FC01EC01DC01CC01BC01AC019C01124A7
:100020001FBECFEDCDBF10E0A0E6B0E0E4E5F5E007
:1000300002C005900D92AA37B107D9F720E0AAE7D0
:10004000B0E001C01D92A038B207E1F76DD280C2C6
:10005000D7CF8FED87BB80E288BB089583B78360DD
:1000600083BF89B7826089BF7894089586B38295EB
:100070008695877091E08927817090E008950097B8
:1000800041F0E9EFF0E03197F1F700C0000001978F
:10009000F6CF0895CF92DF92EF92FF921F93CF9306
:1000A000DF93182F806288BBE12CF12C5AE0C52E1B
:1000B000D12CC2E3D0E0CE01E2DF103111F0110FFC
:1000C00001C011E0812F806288BBCA3FD1055CF07E
:1000D000C03981E0D80724F44EE1C42ED12C03C0EE
:1000E00032E3C32ED12CEF2851F1C53F81E0D80770
:1000F00004F1CE01880F991FC2DFC6E0D0E088B3BB
:10010000812788BB8AEF90E0BADF2197C1F780E2B0
:1001100088BB80917E0090917F00892BC9F08EEE84
:1001200092E0DF91CF911F91FF90EF90DF90CF9001
:10013000A6CFCC0DDD1DEE24E394F12CBCCF96DFD1
:1001400031E020E0892B09F030E0E32EF22EB3CF2E
:10015000DF91CF911F91FF90EF90DF90CF900895A6
:100160001F920F920FB60F9211242F933F934F932C
:100170005F936F937F938F939F93AF93BF93EF930F
:10018000FF9374DF892BC1F180917A0090917B00FD
:10019000892B91F580917C0090917D000196909340
:1001A0007D0080937C0080917C0090917D0003977E
:1001B0003CF181E090E090937B0080937A00809105
:1001C000600068DF10927D0010927C0010927B002E
:1001D00010927A0080916000880F880F80936000F1
:1001E00080916000803260F08091600082958695F9
:1001F00087708093600004C010927D0010927C0094
:10020000FF91EF91BF91AF919F918F917F916F91EE
:100210005F914F913F912F910F900FBE0F901F90C4
:100220001895EF92FF920F931F93CF93DF938C015A
:1002300080E288BBC0E0D0E0EE24E394F12C88B3E8
:1002400097010C2E01C0220F0A94EAF7282728BB39
:10025000C80115DF2196C530D10589F7C0E0D0E08F
:10026000EE24E394F12C88B397010C2E01C0220FE9
:100270000A94EAF7282728BBC80101DF2196C53078
:10028000D10589F7DF91CF911F910F91FF90EF90EA
:100290000895AF92BF92CF92DF92EF92FF920F93A9
:1002A0001F93CF93DF93CDB7DD27CA50CDBF7C011D
:1002B00080E288BB8AE0E1E6F0E0DE011196019081
:1002C0000D928A95E1F7C701DADE8E010F5F1F4FAD
:1002D0006E018BE0C80ED11CAA24A394B12C88B364
:1002E000F80190810E5F1F4F950101C0220F9A9572
:1002F000EAF7282B28BBC701C2DE0C151D0579F7CC
:10030000C65FCDBFDF91CF911F910F91FF90EF900E
:10031000DF90CF90BF90AF900895AF92BF92CF92F1
:10032000DF92EF92FF920F931F93CF93DF93CDB79E
:10033000DD27CA50CDBF6C018FE388BB8AE0EBE6B6
:10034000F0E0DE01119601900D928A95E1F78E01A1
:100350000F5F1F4F7E018BE0E80EF11CAA24A394CF
:10036000B12C28B3F80180810E5F1F4FA50101C099
:10037000440F8A95EAF7942F9095922398BBC60173
:100380007EDE0E151F0569F7C65FCDBFDF91CF91E9
:100390001F910F91FF90EF90DF90CF90BF90AF90A3
:1003A0000895CF93DF93EC018FE388BBCE0167DE26
:1003B00080E288BBCE01DF91CF9161CECF92DF92F8
:1003C000EF92FF920F931F93CF93DF93CDB7DD276B
:1003D000C450CDBF8C01198284E08A838EE08B8368
:1003E0008FE18C83CE0101967C016E0195E0C90EF0
:1003F000D11CF70181917F01806288BBC8013FDE7B
:10040000EC14FD04B1F78B81806288BBC80137DE34
:100410008A81806288BBC80132DE80E288BBCC5F03
:10042000CDBFDF91CF911F910F91FF90EF90DF90A3
:10043000CF900895CF92DF92EF92FF920F931F9388
:10044000CF93DF93CDB7DD27C550CDBF6C0195E0CD
:10045000E5E7F0E0DE01119601900D929A95E1F743
:100460008E010F5F1F4F7E0185E0E80EF11CF80141
:1004700091918F01906298BBC60101DE0E151F0598
:10048000B1F7CB5FCDBFDF91CF911F910F91FF905F
:10049000EF90DF90CF90089584EF91E0C2DE88EE78
:1004A00093E0F7DE88EE93E038DF84EF91E0C2DF7F
:1004B00084EF91E076DF84EF91E073DF84EF91E0E9
:1004C0007DDF84EF91E07ADF8AEF90E0AADE84EFAF
:1004D00091E0DFDE84EF91E020DF8AEF90E0AADF99
:1004E0008AEF90E05EDF8AEF90E05BDF8AEF90E0DA
:1004F00065DF8AEF90E062DF8DE790E092DE8AEFC1
:1005000090E0C7DE8AEF90E008DF8DE790E092DFB1
:100510008DE790E046DF8DE790E043DF8DE790E0E8
:100520004DDF8DE790E04ACF94DD98DD9FDD892B8C
:1005300031F081E090E090937F0080937E00809185
:100540007E0090917F00892B11F0A6DFFECFFFCFB8
:04055000F894FFCF4D
:100554000103000100040002000000020001000485
:0A0564000000000300160B151A0D2D
:00000001FF
